{
  "contractName": "Info",
  "abi": [
    {
      "inputs": [],
      "stateMutability": "nonpayable",
      "type": "constructor"
    },
    {
      "inputs": [
        {
          "internalType": "address",
          "name": "",
          "type": "address"
        }
      ],
      "name": "creditPoints",
      "outputs": [
        {
          "internalType": "uint256",
          "name": "",
          "type": "uint256"
        }
      ],
      "stateMutability": "view",
      "type": "function",
      "constant": true
    },
    {
      "inputs": [
        {
          "internalType": "address",
          "name": "",
          "type": "address"
        }
      ],
      "name": "isCreate",
      "outputs": [
        {
          "internalType": "bool",
          "name": "",
          "type": "bool"
        }
      ],
      "stateMutability": "view",
      "type": "function",
      "constant": true
    },
    {
      "inputs": [
        {
          "internalType": "address",
          "name": "user",
          "type": "address"
        }
      ],
      "name": "createInfo",
      "outputs": [],
      "stateMutability": "nonpayable",
      "type": "function"
    },
    {
      "inputs": [
        {
          "internalType": "address",
          "name": "to",
          "type": "address"
        },
        {
          "internalType": "address",
          "name": "from",
          "type": "address"
        },
        {
          "internalType": "bool",
          "name": "like",
          "type": "bool"
        }
      ],
      "name": "vote",
      "outputs": [],
      "stateMutability": "nonpayable",
      "type": "function"
    }
  ],
  "bytecode": "0x608060405234801561001057600080fd5b5061091f806100206000396000f3fe608060405234801561001057600080fd5b506004361061004c5760003560e01c8063056568cf14610051578063128d87111461006d57806358e0db3714610089578063803c8fc2146100b9575b600080fd5b61006b600480360381019061006691906105b0565b6100e9565b005b610087600480360381019061008291906105d9565b610216565b005b6100a3600480360381019061009e91906105b0565b61054e565b6040516100b0919061072a565b60405180910390f35b6100d360048036038101906100ce91906105b0565b610566565b6040516100e091906106af565b60405180910390f35b80600160008273ffffffffffffffffffffffffffffffffffffffff1673ffffffffffffffffffffffffffffffffffffffff16815260200190815260200160002060009054906101000a900460ff1615610177576040517f08c379a000000000000000000000000000000000000000000000000000000000815260040161016e906106ea565b60405180910390fd5b60646000808473ffffffffffffffffffffffffffffffffffffffff1673ffffffffffffffffffffffffffffffffffffffff1681526020019081526020016000208190555060018060008473ffffffffffffffffffffffffffffffffffffffff1673ffffffffffffffffffffffffffffffffffffffff16815260200190815260200160002060006101000a81548160ff0219169083151502179055505050565b81600160008273ffffffffffffffffffffffffffffffffffffffff1673ffffffffffffffffffffffffffffffffffffffff16815260200190815260200160002060009054906101000a900460ff166102a3576040517f08c379a000000000000000000000000000000000000000000000000000000000815260040161029a9061070a565b60405180910390fd5b83600160008273ffffffffffffffffffffffffffffffffffffffff1673ffffffffffffffffffffffffffffffffffffffff16815260200190815260200160002060009054906101000a900460ff16610330576040517f08c379a00000000000000000000000000000000000000000000000000000000081526004016103279061070a565b60405180910390fd5b8484600260008373ffffffffffffffffffffffffffffffffffffffff1673ffffffffffffffffffffffffffffffffffffffff16815260200190815260200160002060008273ffffffffffffffffffffffffffffffffffffffff1673ffffffffffffffffffffffffffffffffffffffff16815260200190815260200160002060009054906101000a900460ff16156103fc576040517f08c379a00000000000000000000000000000000000000000000000000000000081526004016103f3906106ca565b60405180910390fd5b841561045b576000808873ffffffffffffffffffffffffffffffffffffffff1673ffffffffffffffffffffffffffffffffffffffff1681526020019081526020016000206000815480929190610451906107c8565b91905055506104b0565b6000808873ffffffffffffffffffffffffffffffffffffffff1673ffffffffffffffffffffffffffffffffffffffff16815260200190815260200160002060008154809291906104aa9061079e565b91905055505b6001600260008973ffffffffffffffffffffffffffffffffffffffff1673ffffffffffffffffffffffffffffffffffffffff16815260200190815260200160002060008873ffffffffffffffffffffffffffffffffffffffff1673ffffffffffffffffffffffffffffffffffffffff16815260200190815260200160002060006101000a81548160ff02191690831515021790555050505050505050565b60006020528060005260406000206000915090505481565b60016020528060005260406000206000915054906101000a900460ff1681565b600081359050610595816108bb565b92915050565b6000813590506105aa816108d2565b92915050565b6000602082840312156105c257600080fd5b60006105d084828501610586565b91505092915050565b6000806000606084860312156105ee57600080fd5b60006105fc86828701610586565b935050602061060d86828701610586565b925050604061061e8682870161059b565b9150509250925092565b61063181610768565b82525050565b6000610644600b83610745565b915061064f82610840565b602082019050919050565b6000610667601883610745565b915061067282610869565b602082019050919050565b600061068a601b83610745565b915061069582610892565b602082019050919050565b6106a981610794565b82525050565b60006020820190506106c46000830184610628565b92915050565b600060208201905081810360008301526106e381610637565b9050919050565b600060208201905081810360008301526107038161065a565b9050919050565b600060208201905081810360008301526107238161067d565b9050919050565b600060208201905061073f60008301846106a0565b92915050565b600082825260208201905092915050565b600061076182610774565b9050919050565b60008115159050919050565b600073ffffffffffffffffffffffffffffffffffffffff82169050919050565b6000819050919050565b60006107a982610794565b915060008214156107bd576107bc610811565b5b600182039050919050565b60006107d382610794565b91507fffffffffffffffffffffffffffffffffffffffffffffffffffffffffffffffff82141561080657610805610811565b5b600182019050919050565b7f4e487b7100000000000000000000000000000000000000000000000000000000600052601160045260246000fd5b7f4973207669736974656421000000000000000000000000000000000000000000600082015250565b7f5468697320616464726573732069732063726561746564210000000000000000600082015250565b7f5468697320616464726573732069736e27742063726561746564210000000000600082015250565b6108c481610756565b81146108cf57600080fd5b50565b6108db81610768565b81146108e657600080fd5b5056fea264697066735822122045a31cfde5ac2dc3df707641aaccf1aca2550f942a9524a2e92f3c652a26a5a264736f6c63430008020033",
  "immutableReferences": {},
  "source": "// SPDX-License-Identifier: GPL-3.0\r\n\r\npragma solidity >=0.8.2;\r\n\r\ncontract Info{\r\n    mapping(address => uint256) public creditPoints;\r\n    mapping(address => bool) public isCreate;\r\n    mapping(address => mapping(address => bool)) voted;\r\n\r\n    constructor(){}\r\n\r\n    modifier checkNewUser(address user){\r\n        require(!isCreate[user],\"This address is created!\");\r\n        _;\r\n    }\r\n\r\n    modifier checkOldUser(address user){\r\n        require(isCreate[user],\"This address isn't created!\");\r\n        _;\r\n    }\r\n\r\n    modifier checkVoted(address to ,address from){\r\n       require(!voted[to][from],\"Is visited!\"); \r\n       _;\r\n    }\r\n\r\n    function createInfo(address user) external checkNewUser(user){\r\n        creditPoints[user]=100;\r\n        isCreate[user]=true;\r\n    }\r\n\r\n    function vote(address to ,address from,bool like)external checkOldUser(from) checkOldUser(to) checkVoted(to,from){\r\n        if(like)\r\n        creditPoints[to]++;\r\n        else \r\n        creditPoints[to]--;\r\n\r\n        voted[to][from]=true;\r\n    }\r\n\r\n}",
  "sourcePath": "/usr/src/app/contracts/info.sol",
  "compiler": {
    "name": "solc",
    "version": "0.8.2+commit.661d1103.Emscripten.clang"
  },
  "schemaVersion": "3.4.4",
  "updatedAt": "2024-06-14T14:31:13.905Z",
  "networkType": "ethereum",
  "devdoc": {
    "kind": "dev",
    "methods": {},
    "version": 1
  },
  "userdoc": {
    "kind": "user",
    "methods": {},
    "version": 1
  }
}