{
  "contractName": "UserInfo",
  "abi": [
    {
      "inputs": [],
      "stateMutability": "nonpayable",
      "type": "constructor"
    },
    {
      "inputs": [
        {
          "internalType": "address",
          "name": "",
          "type": "address"
        }
      ],
      "name": "isCreate",
      "outputs": [
        {
          "internalType": "bool",
          "name": "",
          "type": "bool"
        }
      ],
      "stateMutability": "view",
      "type": "function",
      "constant": true
    },
    {
      "inputs": [
        {
          "internalType": "string[]",
          "name": "links",
          "type": "string[]"
        }
      ],
      "name": "createInfo",
      "outputs": [],
      "stateMutability": "nonpayable",
      "type": "function"
    },
    {
      "inputs": [],
      "name": "getInfo",
      "outputs": [
        {
          "components": [
            {
              "internalType": "bool",
              "name": "kyc_Confirm",
              "type": "bool"
            },
            {
              "internalType": "string[]",
              "name": "links",
              "type": "string[]"
            }
          ],
          "internalType": "struct UserInfo.UserData",
          "name": "",
          "type": "tuple"
        }
      ],
      "stateMutability": "view",
      "type": "function",
      "constant": true
    },
    {
      "inputs": [],
      "name": "kycCheck",
      "outputs": [],
      "stateMutability": "nonpayable",
      "type": "function"
    },
    {
      "inputs": [],
      "name": "getLinks",
      "outputs": [
        {
          "internalType": "string[]",
          "name": "links",
          "type": "string[]"
        }
      ],
      "stateMutability": "view",
      "type": "function",
      "constant": true
    },
    {
      "inputs": [
        {
          "internalType": "uint256",
          "name": "index",
          "type": "uint256"
        }
      ],
      "name": "removeLink",
      "outputs": [],
      "stateMutability": "nonpayable",
      "type": "function"
    },
    {
      "inputs": [
        {
          "internalType": "string",
          "name": "link",
          "type": "string"
        }
      ],
      "name": "addLink",
      "outputs": [],
      "stateMutability": "nonpayable",
      "type": "function"
    }
  ],
  "bytecode": "0x608060405234801561001057600080fd5b506113f1806100206000396000f3fe608060405234801561001057600080fd5b506004361061007d5760003560e01c8063803c8fc21161005b578063803c8fc2146100d8578063b080ae4f14610108578063f66ddcbb14610124578063fe810da7146101425761007d565b806322a618fa146100825780634648bd601461009e5780635a9b0b89146100ba575b600080fd5b61009c60048036038101906100979190610d4b565b61014c565b005b6100b860048036038101906100b39190610d06565b61025b565b005b6100c2610450565b6040516100cf9190611094565b60405180910390f35b6100f260048036038101906100ed9190610cdd565b610628565b6040516100ff9190610ff9565b60405180910390f35b610122600480360381019061011d9190610d90565b610648565b005b61012c6107fb565b6040516101399190610fd7565b60405180910390f35b61014a6109a1565b005b336000808273ffffffffffffffffffffffffffffffffffffffff1673ffffffffffffffffffffffffffffffffffffffff16815260200190815260200160002060009054906101000a900460ff166101d8576040517f08c379a00000000000000000000000000000000000000000000000000000000081526004016101cf90611054565b60405180910390fd5b600160003373ffffffffffffffffffffffffffffffffffffffff1673ffffffffffffffffffffffffffffffffffffffff168152602001908152602001600020600101838390918060018154018082558091505060019003906000526020600020016000909192909192909192909192509190610255929190610b20565b50505050565b336000808273ffffffffffffffffffffffffffffffffffffffff1673ffffffffffffffffffffffffffffffffffffffff16815260200190815260200160002060009054906101000a900460ff16156102e8576040517f08c379a00000000000000000000000000000000000000000000000000000000081526004016102df90611034565b60405180910390fd5b60016000803373ffffffffffffffffffffffffffffffffffffffff1673ffffffffffffffffffffffffffffffffffffffff16815260200190815260200160002060006101000a81548160ff0219169083151502179055506000600160003373ffffffffffffffffffffffffffffffffffffffff1673ffffffffffffffffffffffffffffffffffffffff168152602001908152602001600020905060008160000160006101000a81548160ff02191690831515021790555060005b8484905081101561044957816001018585838181106103ea577f4e487b7100000000000000000000000000000000000000000000000000000000600052603260045260246000fd5b90506020028101906103fc91906110b6565b90918060018154018082558091505060019003906000526020600020016000909192909192909192909192509190610435929190610b20565b50808061044190611231565b9150506103a2565b5050505050565b610458610ba6565b336000808273ffffffffffffffffffffffffffffffffffffffff1673ffffffffffffffffffffffffffffffffffffffff16815260200190815260200160002060009054906101000a900460ff166104e4576040517f08c379a00000000000000000000000000000000000000000000000000000000081526004016104db90611054565b60405180910390fd5b600160003373ffffffffffffffffffffffffffffffffffffffff1673ffffffffffffffffffffffffffffffffffffffff1681526020019081526020016000206040518060400160405290816000820160009054906101000a900460ff1615151515815260200160018201805480602002602001604051908101604052809291908181526020016000905b8282101561061a57838290600052602060002001805461058d906111ff565b80601f01602080910402602001604051908101604052809291908181526020018280546105b9906111ff565b80156106065780601f106105db57610100808354040283529160200191610606565b820191906000526020600020905b8154815290600101906020018083116105e957829003601f168201915b50505050508152602001906001019061056e565b505050508152505091505090565b60006020528060005260406000206000915054906101000a900460ff1681565b336000808273ffffffffffffffffffffffffffffffffffffffff1673ffffffffffffffffffffffffffffffffffffffff16815260200190815260200160002060009054906101000a900460ff166106d4576040517f08c379a00000000000000000000000000000000000000000000000000000000081526004016106cb90611054565b60405180910390fd5b6000821180156107285750600160003373ffffffffffffffffffffffffffffffffffffffff1673ffffffffffffffffffffffffffffffffffffffff1681526020019081526020016000206001018054905082105b610767576040517f08c379a000000000000000000000000000000000000000000000000000000000815260040161075e90611014565b60405180910390fd5b600160003373ffffffffffffffffffffffffffffffffffffffff1673ffffffffffffffffffffffffffffffffffffffff16815260200190815260200160002060010182815481106107e1577f4e487b7100000000000000000000000000000000000000000000000000000000600052603260045260246000fd5b9060005260206000200160006107f79190610bc2565b5050565b6060336000808273ffffffffffffffffffffffffffffffffffffffff1673ffffffffffffffffffffffffffffffffffffffff16815260200190815260200160002060009054906101000a900460ff16610889576040517f08c379a000000000000000000000000000000000000000000000000000000000815260040161088090611054565b60405180910390fd5b600160003373ffffffffffffffffffffffffffffffffffffffff1673ffffffffffffffffffffffffffffffffffffffff168152602001908152602001600020600101805480602002602001604051908101604052809291908181526020016000905b8282101561099757838290600052602060002001805461090a906111ff565b80601f0160208091040260200160405190810160405280929190818152602001828054610936906111ff565b80156109835780601f1061095857610100808354040283529160200191610983565b820191906000526020600020905b81548152906001019060200180831161096657829003601f168201915b5050505050815260200190600101906108eb565b5050505091505090565b336000808273ffffffffffffffffffffffffffffffffffffffff1673ffffffffffffffffffffffffffffffffffffffff16815260200190815260200160002060009054906101000a900460ff16610a2d576040517f08c379a0000000000000000000000000000000000000000000000000000000008152600401610a2490611054565b60405180910390fd5b60001515600160003373ffffffffffffffffffffffffffffffffffffffff1673ffffffffffffffffffffffffffffffffffffffff16815260200190815260200160002060000160009054906101000a900460ff16151514610ac3576040517f08c379a0000000000000000000000000000000000000000000000000000000008152600401610aba90611074565b60405180910390fd5b60018060003373ffffffffffffffffffffffffffffffffffffffff1673ffffffffffffffffffffffffffffffffffffffff16815260200190815260200160002060000160006101000a81548160ff02191690831515021790555050565b828054610b2c906111ff565b90600052602060002090601f016020900481019282610b4e5760008555610b95565b82601f10610b6757803560ff1916838001178555610b95565b82800160010185558215610b95579182015b82811115610b94578235825591602001919060010190610b79565b5b509050610ba29190610c02565b5090565b6040518060400160405280600015158152602001606081525090565b508054610bce906111ff565b6000825580601f10610be05750610bff565b601f016020900490600052602060002090810190610bfe9190610c02565b5b50565b5b80821115610c1b576000816000905550600101610c03565b5090565b600081359050610c2e8161138d565b92915050565b60008083601f840112610c4657600080fd5b8235905067ffffffffffffffff811115610c5f57600080fd5b602083019150836020820283011115610c7757600080fd5b9250929050565b60008083601f840112610c9057600080fd5b8235905067ffffffffffffffff811115610ca957600080fd5b602083019150836001820283011115610cc157600080fd5b9250929050565b600081359050610cd7816113a4565b92915050565b600060208284031215610cef57600080fd5b6000610cfd84828501610c1f565b91505092915050565b60008060208385031215610d1957600080fd5b600083013567ffffffffffffffff811115610d3357600080fd5b610d3f85828601610c34565b92509250509250929050565b60008060208385031215610d5e57600080fd5b600083013567ffffffffffffffff811115610d7857600080fd5b610d8485828601610c7e565b92509250509250929050565b600060208284031215610da257600080fd5b6000610db084828501610cc8565b91505092915050565b6000610dc58383610ed5565b905092915050565b6000610dd88261111d565b610de28185611140565b935083602082028501610df48561110d565b8060005b85811015610e305784840389528151610e118582610db9565b9450610e1c83611133565b925060208a01995050600181019050610df8565b50829750879550505050505092915050565b6000610e4d8261111d565b610e578185611151565b935083602082028501610e698561110d565b8060005b85811015610ea55784840389528151610e868582610db9565b9450610e9183611133565b925060208a01995050600181019050610e6d565b50829750879550505050505092915050565b610ec081611196565b82525050565b610ecf81611196565b82525050565b6000610ee082611128565b610eea8185611162565b9350610efa8185602086016111cc565b610f03816112d8565b840191505092915050565b6000610f1b601083611173565b9150610f26826112e9565b602082019050919050565b6000610f3e601883611173565b9150610f4982611312565b602082019050919050565b6000610f61601b83611173565b9150610f6c8261133b565b602082019050919050565b6000610f84600a83611173565b9150610f8f82611364565b602082019050919050565b6000604083016000830151610fb26000860182610eb7565b5060208301518482036020860152610fca8282610dcd565b9150508091505092915050565b60006020820190508181036000830152610ff18184610e42565b905092915050565b600060208201905061100e6000830184610ec6565b92915050565b6000602082019050818103600083015261102d81610f0e565b9050919050565b6000602082019050818103600083015261104d81610f31565b9050919050565b6000602082019050818103600083015261106d81610f54565b9050919050565b6000602082019050818103600083015261108d81610f77565b9050919050565b600060208201905081810360008301526110ae8184610f9a565b905092915050565b600080833560016020038436030381126110cf57600080fd5b80840192508235915067ffffffffffffffff8211156110ed57600080fd5b60208301925060018202360383131561110557600080fd5b509250929050565b6000819050602082019050919050565b600081519050919050565b600081519050919050565b6000602082019050919050565b600082825260208201905092915050565b600082825260208201905092915050565b600082825260208201905092915050565b600082825260208201905092915050565b600061118f826111a2565b9050919050565b60008115159050919050565b600073ffffffffffffffffffffffffffffffffffffffff82169050919050565b6000819050919050565b60005b838110156111ea5780820151818401526020810190506111cf565b838111156111f9576000848401525b50505050565b6000600282049050600182168061121757607f821691505b6020821081141561122b5761122a6112a9565b5b50919050565b600061123c826111c2565b91507fffffffffffffffffffffffffffffffffffffffffffffffffffffffffffffffff82141561126f5761126e61127a565b5b600182019050919050565b7f4e487b7100000000000000000000000000000000000000000000000000000000600052601160045260246000fd5b7f4e487b7100000000000000000000000000000000000000000000000000000000600052602260045260246000fd5b6000601f19601f8301169050919050565b7f696e6465782069732069737661696c6400000000000000000000000000000000600082015250565b7f5468697320616464726573732069732063726561746564210000000000000000600082015250565b7f5468697320616464726573732069736e27742063726561746564210000000000600082015250565b7f697320636f6e6669726d00000000000000000000000000000000000000000000600082015250565b61139681611184565b81146113a157600080fd5b50565b6113ad816111c2565b81146113b857600080fd5b5056fea26469706673582212205727bac12c218fbf7640405fb8df78228281d975ce57d61059d7e2fc5c5f327264736f6c63430008020033",
  "immutableReferences": {},
  "source": "// SPDX-License-Identifier: GPL-3.0\r\n\r\npragma solidity >=0.8.2;\r\n\r\ncontract UserInfo{\r\n    struct UserData {\r\n        bool kyc_Confirm;\r\n        string[] links;\r\n    }\r\n\r\n    mapping(address => bool) public isCreate;\r\n    mapping(address => UserData) users;\r\n\r\n    constructor(){}\r\n\r\n    modifier checkNewUser(address user){\r\n        require(!isCreate[user],\"This address is created!\");\r\n        _;\r\n    }\r\n\r\n    modifier checkOldUser(address user){\r\n        require(isCreate[user],\"This address isn't created!\");\r\n        _;\r\n    }\r\n\r\n    function createInfo(string[] calldata links) external checkNewUser(msg.sender) {\r\n        isCreate[msg.sender]=true;\r\n        UserData storage user = users[msg.sender];\r\n        user.kyc_Confirm = false;\r\n        for (uint i = 0; i < links.length; i++) {\r\n            user.links.push(links[i]);\r\n        }\r\n    }\r\n\r\n    function getInfo() external view checkOldUser(msg.sender) returns(UserData memory) {\r\n        return users[msg.sender];\r\n    }\r\n\r\n    function kycCheck() external checkOldUser(msg.sender){\r\n        require(users[msg.sender].kyc_Confirm==false,\"is confirm\");\r\n        users[msg.sender].kyc_Confirm=true;\r\n    }\r\n\r\n    function getLinks() external view checkOldUser(msg.sender) returns (string[] memory links){\r\n        return users[msg.sender].links;\r\n    }\r\n\r\n    function removeLink(uint256 index) external checkOldUser(msg.sender){\r\n       require(index > 0 && index < users[msg.sender].links.length,\"index is isvaild\");\r\n        delete users[msg.sender].links[index];\r\n    }\r\n\r\n    function addLink(string calldata link) external checkOldUser(msg.sender){\r\n        users[msg.sender].links.push(link);\r\n    }\r\n}",
  "sourcePath": "/usr/src/app/contracts/userInfo.sol",
  "compiler": {
    "name": "solc",
    "version": "0.8.2+commit.661d1103.Emscripten.clang"
  },
  "schemaVersion": "3.4.4",
  "updatedAt": "2024-06-20T02:46:51.469Z",
  "networkType": "ethereum",
  "devdoc": {
    "kind": "dev",
    "methods": {},
    "version": 1
  },
  "userdoc": {
    "kind": "user",
    "methods": {},
    "version": 1
  }
}